{
  "contractName": "DarkForestCore",
  "abi": [
    {
      "inputs": [
        {
          "internalType": "contract IVerifier",
          "name": "_verifier",
          "type": "address"
        }
      ],
      "stateMutability": "nonpayable",
      "type": "constructor"
    },
    {
      "anonymous": false,
      "inputs": [
        {
          "indexed": false,
          "internalType": "address",
          "name": "player",
          "type": "address"
        },
        {
          "indexed": false,
          "internalType": "uint256",
          "name": "loc",
          "type": "uint256"
        }
      ],
      "name": "PlayerInitialized",
      "type": "event"
    },
    {
      "inputs": [],
      "name": "owner",
      "outputs": [
        {
          "internalType": "address",
          "name": "",
          "type": "address"
        }
      ],
      "stateMutability": "view",
      "type": "function",
      "constant": true
    },
    {
      "inputs": [],
      "name": "verifier",
      "outputs": [
        {
          "internalType": "contract IVerifier",
          "name": "",
          "type": "address"
        }
      ],
      "stateMutability": "view",
      "type": "function",
      "constant": true
    },
    {
      "inputs": [
        {
          "internalType": "uint256[2]",
          "name": "_a",
          "type": "uint256[2]"
        },
        {
          "internalType": "uint256[2][2]",
          "name": "_b",
          "type": "uint256[2][2]"
        },
        {
          "internalType": "uint256[2]",
          "name": "_c",
          "type": "uint256[2]"
        },
        {
          "internalType": "uint256[4]",
          "name": "_input",
          "type": "uint256[4]"
        }
      ],
      "name": "initializePlayer",
      "outputs": [],
      "stateMutability": "nonpayable",
      "type": "function"
    },
    {
      "inputs": [],
      "name": "GetPlayerCount",
      "outputs": [
        {
          "internalType": "uint256",
          "name": "",
          "type": "uint256"
        }
      ],
      "stateMutability": "view",
      "type": "function",
      "constant": true
    },
    {
      "inputs": [
        {
          "internalType": "uint256",
          "name": "_location",
          "type": "uint256"
        }
      ],
      "name": "GetPlayer",
      "outputs": [
        {
          "internalType": "uint256",
          "name": "location",
          "type": "uint256"
        },
        {
          "internalType": "uint256",
          "name": "expiry",
          "type": "uint256"
        }
      ],
      "stateMutability": "view",
      "type": "function",
      "constant": true
    }
  ],
  "bytecode": "0x60a060405234801561001057600080fd5b5060405162000ef538038062000ef583398181016040528101906100349190610123565b8073ffffffffffffffffffffffffffffffffffffffff1660808173ffffffffffffffffffffffffffffffffffffffff1681525050336000806101000a81548173ffffffffffffffffffffffffffffffffffffffff021916908373ffffffffffffffffffffffffffffffffffffffff16021790555050610150565b600080fd5b600073ffffffffffffffffffffffffffffffffffffffff82169050919050565b60006100de826100b3565b9050919050565b60006100f0826100d3565b9050919050565b610100816100e5565b811461010b57600080fd5b50565b60008151905061011d816100f7565b92915050565b600060208284031215610139576101386100ae565b5b60006101478482850161010e565b91505092915050565b608051610d82620001736000396000818161010501526101290152610d826000f3fe608060405234801561001057600080fd5b50600436106100575760003560e01c80632b7ac3f31461005c57806337c357a21461007a57806338dfa19e146100965780635d200f84146100b45780638da5cb5b146100e5575b600080fd5b610064610103565b604051610071919061047f565b60405180910390f35b610094600480360381019061008f9190610788565b610127565b005b61009e6103a1565b6040516100ab9190610800565b60405180910390f35b6100ce60048036038101906100c9919061081b565b6103ae565b6040516100dc929190610848565b60405180910390f35b6100ed6103dc565b6040516100fa9190610892565b60405180910390f35b7f000000000000000000000000000000000000000000000000000000000000000081565b7f000000000000000000000000000000000000000000000000000000000000000073ffffffffffffffffffffffffffffffffffffffff16635fe8c13b858585856040518563ffffffff1660e01b81526004016101869493929190610ada565b6020604051808303816000875af11580156101a5573d6000803e3d6000fd5b505050506040513d601f19601f820116820180604052508101906101c99190610b59565b610208576040517f08c379a00000000000000000000000000000000000000000000000000000000081526004016101ff90610be3565b60405180910390fd5b60008160006004811061021e5761021d610c03565b5b602002015190507f5765df5ce7cf4175ef997923b4936159dcf3cea059434dab4643214d690a2b953382604051610256929190610c32565b60405180910390a160006003600083815260200190815260200160002060000154146102b7576040517f08c379a00000000000000000000000000000000000000000000000000000000081526004016102ae90610ca7565b60405180910390fd5b600061012c426102c79190610cf6565b9050600060405180606001604052808481526020018381526020016001151581525090506002819080600181540180825580915050600190039060005260206000209060030201600090919091909150600082015181600001556020820151816001015560408201518160020160006101000a81548160ff02191690831515021790555050508060036000858152602001908152602001600020600082015181600001556020820151816001015560408201518160020160006101000a81548160ff02191690831515021790555090505050505050505050565b6000600280549050905090565b6000806000600360008581526020019081526020016000209050806000015481600101549250925050915091565b60008054906101000a900473ffffffffffffffffffffffffffffffffffffffff1681565b600073ffffffffffffffffffffffffffffffffffffffff82169050919050565b6000819050919050565b600061044561044061043b84610400565b610420565b610400565b9050919050565b60006104578261042a565b9050919050565b60006104698261044c565b9050919050565b6104798161045e565b82525050565b60006020820190506104946000830184610470565b92915050565b6000604051905090565b600080fd5b600080fd5b6000601f19601f8301169050919050565b7f4e487b7100000000000000000000000000000000000000000000000000000000600052604160045260246000fd5b6104f7826104ae565b810181811067ffffffffffffffff82111715610516576105156104bf565b5b80604052505050565b600061052961049a565b905061053582826104ee565b919050565b600067ffffffffffffffff821115610555576105546104bf565b5b602082029050919050565b600080fd5b6000819050919050565b61057881610565565b811461058357600080fd5b50565b6000813590506105958161056f565b92915050565b60006105ae6105a98461053a565b61051f565b905080602084028301858111156105c8576105c7610560565b5b835b818110156105f157806105dd8882610586565b8452602084019350506020810190506105ca565b5050509392505050565b600082601f8301126106105761060f6104a9565b5b600261061d84828561059b565b91505092915050565b600067ffffffffffffffff821115610641576106406104bf565b5b602082029050919050565b600061065f61065a84610626565b61051f565b9050806040840283018581111561067957610678610560565b5b835b818110156106a2578061068e88826105fb565b84526020840193505060408101905061067b565b5050509392505050565b600082601f8301126106c1576106c06104a9565b5b60026106ce84828561064c565b91505092915050565b600067ffffffffffffffff8211156106f2576106f16104bf565b5b602082029050919050565b600061071061070b846106d7565b61051f565b9050806020840283018581111561072a57610729610560565b5b835b81811015610753578061073f8882610586565b84526020840193505060208101905061072c565b5050509392505050565b600082601f830112610772576107716104a9565b5b600461077f8482856106fd565b91505092915050565b60008060008061018085870312156107a3576107a26104a4565b5b60006107b1878288016105fb565b94505060406107c2878288016106ac565b93505060c06107d3878288016105fb565b9250506101006107e58782880161075d565b91505092959194509250565b6107fa81610565565b82525050565b600060208201905061081560008301846107f1565b92915050565b600060208284031215610831576108306104a4565b5b600061083f84828501610586565b91505092915050565b600060408201905061085d60008301856107f1565b61086a60208301846107f1565b9392505050565b600061087c82610400565b9050919050565b61088c81610871565b82525050565b60006020820190506108a76000830184610883565b92915050565b600060029050919050565b600081905092915050565b6000819050919050565b6108d681610565565b82525050565b60006108e883836108cd565b60208301905092915050565b6000602082019050919050565b61090a816108ad565b61091481846108b8565b925061091f826108c3565b8060005b8381101561095057815161093787826108dc565b9650610942836108f4565b925050600181019050610923565b505050505050565b600060029050919050565b600081905092915050565b6000819050919050565b600081905092915050565b61098c816108ad565b6109968184610978565b92506109a1826108c3565b8060005b838110156109d25781516109b987826108dc565b96506109c4836108f4565b9250506001810190506109a5565b505050505050565b60006109e68383610983565b60408301905092915050565b6000602082019050919050565b610a0881610958565b610a128184610963565b9250610a1d8261096e565b8060005b83811015610a4e578151610a3587826109da565b9650610a40836109f2565b925050600181019050610a21565b505050505050565b600060049050919050565b600081905092915050565b6000819050919050565b6000602082019050919050565b610a8c81610a56565b610a968184610a61565b9250610aa182610a6c565b8060005b83811015610ad2578151610ab987826108dc565b9650610ac483610a76565b925050600181019050610aa5565b505050505050565b600061018082019050610af06000830187610901565b610afd60408301866109ff565b610b0a60c0830185610901565b610b18610100830184610a83565b95945050505050565b60008115159050919050565b610b3681610b21565b8114610b4157600080fd5b50565b600081519050610b5381610b2d565b92915050565b600060208284031215610b6f57610b6e6104a4565b5b6000610b7d84828501610b44565b91505092915050565b600082825260208201905092915050565b7f4661696c656420696e69742070726f6f6620636865636b000000000000000000600082015250565b6000610bcd601783610b86565b9150610bd882610b97565b602082019050919050565b60006020820190508181036000830152610bfc81610bc0565b9050919050565b7f4e487b7100000000000000000000000000000000000000000000000000000000600052603260045260246000fd5b6000604082019050610c476000830185610883565b610c5460208301846107f1565b9392505050565b7f4120706c6179657220657869737420696e2074686973206c6f636174696f6e00600082015250565b6000610c91601f83610b86565b9150610c9c82610c5b565b602082019050919050565b60006020820190508181036000830152610cc081610c84565b9050919050565b7f4e487b7100000000000000000000000000000000000000000000000000000000600052601160045260246000fd5b6000610d0182610565565b9150610d0c83610565565b9250827fffffffffffffffffffffffffffffffffffffffffffffffffffffffffffffffff03821115610d4157610d40610cc7565b5b82820190509291505056fea2646970667358221220a099556095d90ee38610943780b2959d188d67f75b7a77595b2fad4883dd019b64736f6c634300080b0033",
  "immutableReferences": {
    "28": [
      {
        "length": 32,
        "start": 261
      },
      {
        "length": 32,
        "start": 297
      }
    ]
  },
  "source": "// SPDX-License-Identifier: UNLICENSED\npragma solidity 0.8.11;\n\ninterface IVerifier {\n    function verifyProof(\n        uint256[2] memory a,\n        uint256[2][2] memory b,\n        uint256[2] memory c,\n        uint256[4] memory input\n    ) external returns (bool);\n}\n\ncontract DarkForestCore {\n    IVerifier public immutable verifier;\n\n    address public owner;\n    // A struct of the player to hold the current location hash and an expiry timestamp of 5mins\n    struct Player {\n        uint256 location;\n        uint256 expiry;\n        bool exists;\n    }\n    uint256 index;\n    Player[] players;\n\n    // We will map the location hash to the player struct in order to validate whether a particular location already has a player in it\n    mapping (uint256 => Player) locationTaken;\n\n    event PlayerInitialized(address player, uint256 loc);\n\n    constructor(\n        IVerifier _verifier\n    ) {\n        verifier = _verifier;\n        owner = msg.sender;\n    }\n\n    modifier onlyAdmin() {\n        require(msg.sender == owner, \"Sender is not a game master\");\n        _;\n    }\n\n    function initializePlayer(\n        uint256[2] memory _a,\n        uint256[2][2] memory _b,\n        uint256[2] memory _c,\n        uint256[4] memory _input\n    ) public {\n        require(\n            verifier.verifyProof(_a, _b, _c, _input),\n            \"Failed init proof check\"\n        );\n\n        uint256 _location = _input[0];\n\n        emit PlayerInitialized(msg.sender, _location);\n        // This assertion will confirm if the location is already taken by an existing player\n        require(\n            locationTaken[_location].location == 0,\n            \"A player exist in this location\"\n        );\n        // This assertion will use the expiry timestamp to confirm if a player was in this location in the last five minutes however once the first assertion passes this one can't fail unless the players can move from their present location\n        // require(\n        //     locationTaken[_location].expiry <= block.timestamp,\n        //     \"A player is currently in this location\"\n        // );\n\n        uint256 expiry = block.timestamp + 300;\n        Player memory player = Player(_location, expiry, true);\n        players.push(player);\n        locationTaken[_location] = player;\n    }\n\n    function GetPlayerCount() view public returns (uint) {\n        return players.length;\n    }\n\n    function GetPlayer(uint256 _location) view public returns (uint256 location, uint256 expiry) {\n        Player storage player = locationTaken[_location];\n\n        return (player.location, player.expiry);\n    }\n}\n",
  "sourcePath": "/Users/tosinshada/Documents/repos/ZKUAssignments/Assignment1/zku-darkforest/eth/contracts/DarkForestCore.sol",
  "compiler": {
    "name": "solc",
    "version": "0.8.11+commit.d7f03943.Emscripten.clang"
  },
  "schemaVersion": "3.4.4",
  "updatedAt": "2022-01-06T01:02:38.648Z",
  "networkType": "ethereum",
  "devdoc": {
    "kind": "dev",
    "methods": {},
    "version": 1
  },
  "userdoc": {
    "kind": "user",
    "methods": {},
    "version": 1
  }
}