{
  "contractName": "DarkForestCore",
  "abi": [
    {
      "inputs": [
        {
          "internalType": "contract IVerifier",
          "name": "_verifier",
          "type": "address"
        }
      ],
      "stateMutability": "nonpayable",
      "type": "constructor"
    },
    {
      "anonymous": false,
      "inputs": [
        {
          "indexed": false,
          "internalType": "address",
          "name": "player",
          "type": "address"
        },
        {
          "indexed": false,
          "internalType": "uint256",
          "name": "loc",
          "type": "uint256"
        }
      ],
      "name": "PlayerInitialized",
      "type": "event"
    },
    {
      "inputs": [],
      "name": "owner",
      "outputs": [
        {
          "internalType": "address",
          "name": "",
          "type": "address"
        }
      ],
      "stateMutability": "view",
      "type": "function",
      "constant": true
    },
    {
      "inputs": [],
      "name": "verifier",
      "outputs": [
        {
          "internalType": "contract IVerifier",
          "name": "",
          "type": "address"
        }
      ],
      "stateMutability": "view",
      "type": "function",
      "constant": true
    },
    {
      "inputs": [
        {
          "internalType": "uint256[2]",
          "name": "_a",
          "type": "uint256[2]"
        },
        {
          "internalType": "uint256[2][2]",
          "name": "_b",
          "type": "uint256[2][2]"
        },
        {
          "internalType": "uint256[2]",
          "name": "_c",
          "type": "uint256[2]"
        },
        {
          "internalType": "uint256[4]",
          "name": "_input",
          "type": "uint256[4]"
        }
      ],
      "name": "initializePlayer",
      "outputs": [],
      "stateMutability": "nonpayable",
      "type": "function"
    },
    {
      "inputs": [],
      "name": "GetPlayerCount",
      "outputs": [
        {
          "internalType": "uint256",
          "name": "",
          "type": "uint256"
        }
      ],
      "stateMutability": "view",
      "type": "function",
      "constant": true
    },
    {
      "inputs": [
        {
          "internalType": "uint256",
          "name": "_location",
          "type": "uint256"
        }
      ],
      "name": "GetPlayerIndex",
      "outputs": [
        {
          "internalType": "uint256",
          "name": "",
          "type": "uint256"
        }
      ],
      "stateMutability": "view",
      "type": "function",
      "constant": true
    },
    {
      "inputs": [
        {
          "internalType": "uint256",
          "name": "_playerIndex",
          "type": "uint256"
        }
      ],
      "name": "GetPlayer",
      "outputs": [
        {
          "internalType": "uint256",
          "name": "location",
          "type": "uint256"
        },
        {
          "internalType": "uint256",
          "name": "expiry",
          "type": "uint256"
        }
      ],
      "stateMutability": "view",
      "type": "function",
      "constant": true
    }
  ],
  "bytecode": "0x60a060405234801561001057600080fd5b50604051610e4d380380610e4d83398181016040528101906100329190610121565b8073ffffffffffffffffffffffffffffffffffffffff1660808173ffffffffffffffffffffffffffffffffffffffff1681525050336000806101000a81548173ffffffffffffffffffffffffffffffffffffffff021916908373ffffffffffffffffffffffffffffffffffffffff1602179055505061014e565b600080fd5b600073ffffffffffffffffffffffffffffffffffffffff82169050919050565b60006100dc826100b1565b9050919050565b60006100ee826100d1565b9050919050565b6100fe816100e3565b811461010957600080fd5b50565b60008151905061011b816100f5565b92915050565b600060208284031215610137576101366100ac565b5b60006101458482850161010c565b91505092915050565b608051610cdd6101706000396000818161014001526101640152610cdd6000f3fe608060405234801561001057600080fd5b50600436106100625760003560e01c80632b7ac3f31461006757806337c357a21461008557806338dfa19e146100a15780635d200f84146100bf5780638da5cb5b146100f0578063e36a2ed21461010e575b600080fd5b61006f61013e565b60405161007c919061043b565b60405180910390f35b61009f600480360381019061009a9190610744565b610162565b005b6100a9610325565b6040516100b691906107bc565b60405180910390f35b6100d960048036038101906100d491906107d7565b610332565b6040516100e7929190610804565b60405180910390f35b6100f861036f565b604051610105919061084e565b60405180910390f35b610128600480360381019061012391906107d7565b610393565b60405161013591906107bc565b60405180910390f35b7f000000000000000000000000000000000000000000000000000000000000000081565b7f000000000000000000000000000000000000000000000000000000000000000073ffffffffffffffffffffffffffffffffffffffff16635fe8c13b858585856040518563ffffffff1660e01b81526004016101c19493929190610a96565b6020604051808303816000875af11580156101e0573d6000803e3d6000fd5b505050506040513d601f19601f820116820180604052508101906102049190610b15565b610243576040517f08c379a000000000000000000000000000000000000000000000000000000000815260040161023a90610b9f565b60405180910390fd5b60008160006004811061025957610258610bbf565b5b60200201519050600061012c426102709190610c1d565b9050600060405180606001604052808481526020018381526020016001151581525090506002819080600181540180825580915050600190039060005260206000209060030201600090919091909150600082015181600001556020820151816001015560408201518160020160006101000a81548160ff0219169083151502179055505050600280549050600181905550600154600360008581526020019081526020016000208190555050505050505050565b6000600280549050905090565b60008060006002848154811061034b5761034a610bbf565b5b90600052602060002090600302019050806000015481600101549250925050915091565b60008054906101000a900473ffffffffffffffffffffffffffffffffffffffff1681565b6000600160036000848152602001908152602001600020546103b59190610c73565b9050919050565b600073ffffffffffffffffffffffffffffffffffffffff82169050919050565b6000819050919050565b60006104016103fc6103f7846103bc565b6103dc565b6103bc565b9050919050565b6000610413826103e6565b9050919050565b600061042582610408565b9050919050565b6104358161041a565b82525050565b6000602082019050610450600083018461042c565b92915050565b6000604051905090565b600080fd5b600080fd5b6000601f19601f8301169050919050565b7f4e487b7100000000000000000000000000000000000000000000000000000000600052604160045260246000fd5b6104b38261046a565b810181811067ffffffffffffffff821117156104d2576104d161047b565b5b80604052505050565b60006104e5610456565b90506104f182826104aa565b919050565b600067ffffffffffffffff8211156105115761051061047b565b5b602082029050919050565b600080fd5b6000819050919050565b61053481610521565b811461053f57600080fd5b50565b6000813590506105518161052b565b92915050565b600061056a610565846104f6565b6104db565b905080602084028301858111156105845761058361051c565b5b835b818110156105ad57806105998882610542565b845260208401935050602081019050610586565b5050509392505050565b600082601f8301126105cc576105cb610465565b5b60026105d9848285610557565b91505092915050565b600067ffffffffffffffff8211156105fd576105fc61047b565b5b602082029050919050565b600061061b610616846105e2565b6104db565b905080604084028301858111156106355761063461051c565b5b835b8181101561065e578061064a88826105b7565b845260208401935050604081019050610637565b5050509392505050565b600082601f83011261067d5761067c610465565b5b600261068a848285610608565b91505092915050565b600067ffffffffffffffff8211156106ae576106ad61047b565b5b602082029050919050565b60006106cc6106c784610693565b6104db565b905080602084028301858111156106e6576106e561051c565b5b835b8181101561070f57806106fb8882610542565b8452602084019350506020810190506106e8565b5050509392505050565b600082601f83011261072e5761072d610465565b5b600461073b8482856106b9565b91505092915050565b600080600080610180858703121561075f5761075e610460565b5b600061076d878288016105b7565b945050604061077e87828801610668565b93505060c061078f878288016105b7565b9250506101006107a187828801610719565b91505092959194509250565b6107b681610521565b82525050565b60006020820190506107d160008301846107ad565b92915050565b6000602082840312156107ed576107ec610460565b5b60006107fb84828501610542565b91505092915050565b600060408201905061081960008301856107ad565b61082660208301846107ad565b9392505050565b6000610838826103bc565b9050919050565b6108488161082d565b82525050565b6000602082019050610863600083018461083f565b92915050565b600060029050919050565b600081905092915050565b6000819050919050565b61089281610521565b82525050565b60006108a48383610889565b60208301905092915050565b6000602082019050919050565b6108c681610869565b6108d08184610874565b92506108db8261087f565b8060005b8381101561090c5781516108f38782610898565b96506108fe836108b0565b9250506001810190506108df565b505050505050565b600060029050919050565b600081905092915050565b6000819050919050565b600081905092915050565b61094881610869565b6109528184610934565b925061095d8261087f565b8060005b8381101561098e5781516109758782610898565b9650610980836108b0565b925050600181019050610961565b505050505050565b60006109a2838361093f565b60408301905092915050565b6000602082019050919050565b6109c481610914565b6109ce818461091f565b92506109d98261092a565b8060005b83811015610a0a5781516109f18782610996565b96506109fc836109ae565b9250506001810190506109dd565b505050505050565b600060049050919050565b600081905092915050565b6000819050919050565b6000602082019050919050565b610a4881610a12565b610a528184610a1d565b9250610a5d82610a28565b8060005b83811015610a8e578151610a758782610898565b9650610a8083610a32565b925050600181019050610a61565b505050505050565b600061018082019050610aac60008301876108bd565b610ab960408301866109bb565b610ac660c08301856108bd565b610ad4610100830184610a3f565b95945050505050565b60008115159050919050565b610af281610add565b8114610afd57600080fd5b50565b600081519050610b0f81610ae9565b92915050565b600060208284031215610b2b57610b2a610460565b5b6000610b3984828501610b00565b91505092915050565b600082825260208201905092915050565b7f4661696c656420696e69742070726f6f6620636865636b000000000000000000600082015250565b6000610b89601783610b42565b9150610b9482610b53565b602082019050919050565b60006020820190508181036000830152610bb881610b7c565b9050919050565b7f4e487b7100000000000000000000000000000000000000000000000000000000600052603260045260246000fd5b7f4e487b7100000000000000000000000000000000000000000000000000000000600052601160045260246000fd5b6000610c2882610521565b9150610c3383610521565b9250827fffffffffffffffffffffffffffffffffffffffffffffffffffffffffffffffff03821115610c6857610c67610bee565b5b828201905092915050565b6000610c7e82610521565b9150610c8983610521565b925082821015610c9c57610c9b610bee565b5b82820390509291505056fea26469706673582212201d6a3f9065344dbef869f07adc7c8f96d9a8b9d73a7b81d45a316666137bb7a964736f6c634300080b0033",
  "immutableReferences": {
    "28": [
      {
        "length": 32,
        "start": 320
      },
      {
        "length": 32,
        "start": 356
      }
    ]
  },
  "source": "// SPDX-License-Identifier: UNLICENSED\npragma solidity 0.8.11;\n\ninterface IVerifier {\n    function verifyProof(\n        uint256[2] memory a,\n        uint256[2][2] memory b,\n        uint256[2] memory c,\n        uint256[4] memory input\n    ) external returns (bool);\n}\n\ncontract DarkForestCore {\n    IVerifier public immutable verifier;\n\n    address public owner;\n    struct Player {\n        uint256 location;\n        uint256 expiry;\n        bool exists;\n    }\n    uint256 index;\n    Player[] players;\n\n    mapping (uint256 => uint) locationTaken;\n\n    event PlayerInitialized(address player, uint256 loc);\n\n    constructor(\n        IVerifier _verifier\n    ) {\n        verifier = _verifier;\n        owner = msg.sender;\n    }\n\n    modifier onlyAdmin() {\n        require(msg.sender == owner, \"Sender is not a game master\");\n        _;\n    }\n\n    function initializePlayer(\n        uint256[2] memory _a,\n        uint256[2][2] memory _b,\n        uint256[2] memory _c,\n        uint256[4] memory _input\n    ) public {\n        require(\n            verifier.verifyProof(_a, _b, _c, _input),\n            \"Failed init proof check\"\n        );\n\n        uint256 _location = _input[0];\n        // uint256 playerExist = locationTaken[_location];\n        //uint256 _maxRadius = _input[1];\n        //uint256 _minRadius = _input[2];\n        //uint256 _hashKey = _input[3];\n\n        // require(\n        //     playerExist != 0,\n        //     \"A player exist in this location\"\n        // );\n\n        // require(\n        //     players[playerExist - 1].expiry <= block.timestamp,\n        //     \"A player is currently in this location\"\n        // );\n\n        uint256 expiry = block.timestamp + 300;\n        Player memory player = Player(_location, expiry, true);\n        players.push(player);\n        index = players.length;\n        locationTaken[_location] = index;\n\n        //emit PlayerInitialized(msg.sender, _location);\n    }\n\n    function GetPlayerCount() view public returns (uint) {\n        return players.length;\n    }\n\n    function GetPlayerIndex(uint256 _location) view public returns (uint) {\n        return locationTaken[_location] - 1;\n    }\n\n    function GetPlayer(uint256 _playerIndex) view public returns (uint256 location, uint256 expiry) {\n        Player storage player = players[_playerIndex];\n\n        return (player.location, player.expiry);\n    }\n}\n",
  "sourcePath": "/Users/tosinshada/Documents/repos/ZKUAssignments/Assignment1/zku-darkforest/eth/contracts/DarkForestCore.sol",
  "compiler": {
    "name": "solc",
    "version": "0.8.11+commit.d7f03943.Emscripten.clang"
  },
  "schemaVersion": "3.4.4",
  "updatedAt": "2022-01-05T19:11:43.886Z",
  "networkType": "ethereum",
  "devdoc": {
    "kind": "dev",
    "methods": {},
    "version": 1
  },
  "userdoc": {
    "kind": "user",
    "methods": {},
    "version": 1
  }
}